{
  "_format": "hh-sol-artifact-1",
  "contractName": "KryxiviaBridgeIn",
  "sourceName": "contracts/KryxiviaBridgeIn.sol",
  "abi": [
    {
      "inputs": [
        {
          "internalType": "address",
          "name": "kryxiviaCoin_",
          "type": "address"
        }
      ],
      "stateMutability": "nonpayable",
      "type": "constructor"
    },
    {
      "anonymous": false,
      "inputs": [
        {
          "indexed": false,
          "internalType": "address",
          "name": "_from",
          "type": "address"
        },
        {
          "indexed": false,
          "internalType": "uint256",
          "name": "_addedAmount",
          "type": "uint256"
        },
        {
          "indexed": false,
          "internalType": "uint256",
          "name": "_totalAmount",
          "type": "uint256"
        }
      ],
      "name": "NewBridgeEntry",
      "type": "event"
    },
    {
      "inputs": [],
      "name": "_bridgeIndex",
      "outputs": [
        {
          "internalType": "uint256",
          "name": "",
          "type": "uint256"
        }
      ],
      "stateMutability": "view",
      "type": "function"
    },
    {
      "inputs": [
        {
          "internalType": "address",
          "name": "",
          "type": "address"
        }
      ],
      "name": "_bridged",
      "outputs": [
        {
          "internalType": "uint256",
          "name": "",
          "type": "uint256"
        }
      ],
      "stateMutability": "view",
      "type": "function"
    },
    {
      "inputs": [
        {
          "internalType": "uint256",
          "name": "",
          "type": "uint256"
        }
      ],
      "name": "_bridgedAddress",
      "outputs": [
        {
          "internalType": "address",
          "name": "",
          "type": "address"
        }
      ],
      "stateMutability": "view",
      "type": "function"
    },
    {
      "inputs": [
        {
          "internalType": "uint256",
          "name": "amount",
          "type": "uint256"
        }
      ],
      "name": "bridgeKxa",
      "outputs": [
        {
          "internalType": "bool",
          "name": "",
          "type": "bool"
        }
      ],
      "stateMutability": "nonpayable",
      "type": "function"
    },
    {
      "inputs": [],
      "name": "getBridgedIndex",
      "outputs": [
        {
          "internalType": "uint256",
          "name": "",
          "type": "uint256"
        }
      ],
      "stateMutability": "view",
      "type": "function"
    },
    {
      "inputs": [
        {
          "internalType": "uint256",
          "name": "index",
          "type": "uint256"
        }
      ],
      "name": "getBridgerIndexAddress",
      "outputs": [
        {
          "internalType": "address",
          "name": "",
          "type": "address"
        }
      ],
      "stateMutability": "view",
      "type": "function"
    },
    {
      "inputs": [
        {
          "internalType": "address",
          "name": "bridger",
          "type": "address"
        }
      ],
      "name": "getBridgerTotal",
      "outputs": [
        {
          "internalType": "uint256",
          "name": "",
          "type": "uint256"
        }
      ],
      "stateMutability": "view",
      "type": "function"
    },
    {
      "inputs": [],
      "name": "getTotalCoinBridged",
      "outputs": [
        {
          "internalType": "uint256",
          "name": "",
          "type": "uint256"
        }
      ],
      "stateMutability": "view",
      "type": "function"
    },
    {
      "inputs": [
        {
          "internalType": "address",
          "name": "newCoin",
          "type": "address"
        }
      ],
      "name": "updateCoin",
      "outputs": [],
      "stateMutability": "nonpayable",
      "type": "function"
    },
    {
      "inputs": [
        {
          "internalType": "uint256",
          "name": "amount",
          "type": "uint256"
        }
      ],
      "name": "withdrawKxa",
      "outputs": [],
      "stateMutability": "nonpayable",
      "type": "function"
    }
  ],
  "bytecode": "0x608060405234801561001057600080fd5b50604051620011a8380380620011a8833981810160405281019061003491906100d8565b33600160006101000a81548173ffffffffffffffffffffffffffffffffffffffff021916908373ffffffffffffffffffffffffffffffffffffffff160217905550806000806101000a81548173ffffffffffffffffffffffffffffffffffffffff021916908373ffffffffffffffffffffffffffffffffffffffff16021790555060006003819055505061014a565b6000815190506100d281610133565b92915050565b6000602082840312156100ea57600080fd5b60006100f8848285016100c3565b91505092915050565b600061010c82610113565b9050919050565b600073ffffffffffffffffffffffffffffffffffffffff82169050919050565b61013c81610101565b811461014757600080fd5b50565b61104e806200015a6000396000f3fe608060405234801561001057600080fd5b506004361061009e5760003560e01c806365aee9f31161006657806365aee9f3146101815780637605c8641461019f57806377c39b42146101bd578063b305e920146101ed578063d15969f0146102095761009e565b80631f0e0f49146100a35780632ef6ffc7146100d35780635aa845d1146100f15780635f056d261461012157806364cfa2ca14610151575b600080fd5b6100bd60048036038101906100b89190610bde565b610225565b6040516100ca9190610ce9565b60405180910390f35b6100db610293565b6040516100e89190610e36565b60405180910390f35b61010b60048036038101906101069190610b8c565b610348565b6040516101189190610e36565b60405180910390f35b61013b60048036038101906101369190610bde565b610360565b6040516101489190610d9b565b60405180910390f35b61016b60048036038101906101669190610b8c565b610690565b6040516101789190610e36565b60405180910390f35b6101896106d9565b6040516101969190610e36565b60405180910390f35b6101a76106df565b6040516101b49190610e36565b60405180910390f35b6101d760048036038101906101d29190610bde565b6106e9565b6040516101e49190610ce9565b60405180910390f35b61020760048036038101906102029190610bde565b610728565b005b610223600480360381019061021e9190610b8c565b610985565b005b600060028281548110610261577f4e487b7100000000000000000000000000000000000000000000000000000000600052603260045260246000fd5b9060005260206000200160009054906101000a900473ffffffffffffffffffffffffffffffffffffffff169050919050565b60008060008054906101000a900473ffffffffffffffffffffffffffffffffffffffff1690508073ffffffffffffffffffffffffffffffffffffffff166370a08231306040518263ffffffff1660e01b81526004016102f29190610ce9565b60206040518083038186803b15801561030a57600080fd5b505afa15801561031e573d6000803e3d6000fd5b505050506040513d601f19601f820116820180604052508101906103429190610c07565b91505090565b60046020528060005260406000206000915090505481565b60008060008054906101000a900473ffffffffffffffffffffffffffffffffffffffff1690506000339050838273ffffffffffffffffffffffffffffffffffffffff166370a08231836040518263ffffffff1660e01b81526004016103c59190610ce9565b60206040518083038186803b1580156103dd57600080fd5b505afa1580156103f1573d6000803e3d6000fd5b505050506040513d601f19601f820116820180604052508101906104159190610c07565b1015610456576040517f08c379a000000000000000000000000000000000000000000000000000000000815260040161044d90610e16565b60405180910390fd5b8173ffffffffffffffffffffffffffffffffffffffff166323b872dd8230876040518463ffffffff1660e01b815260040161049393929190610d04565b602060405180830381600087803b1580156104ad57600080fd5b505af11580156104c1573d6000803e3d6000fd5b505050506040513d601f19601f820116820180604052508101906104e59190610bb5565b610524576040517f08c379a000000000000000000000000000000000000000000000000000000000815260040161051b90610db6565b60405180910390fd5b6000600460008373ffffffffffffffffffffffffffffffffffffffff1673ffffffffffffffffffffffffffffffffffffffff1681526020019081526020016000205414156105765761057581610a58565b5b6105c884600460008473ffffffffffffffffffffffffffffffffffffffff1673ffffffffffffffffffffffffffffffffffffffff16815260200190815260200160002054610ada90919063ffffffff16565b600460008373ffffffffffffffffffffffffffffffffffffffff1673ffffffffffffffffffffffffffffffffffffffff168152602001908152602001600020819055507f4130bb79f8edd5df975d246b469489deb2d70e9c3fcce9ecdcc2cb8e7e6f72af8185600460008573ffffffffffffffffffffffffffffffffffffffff1673ffffffffffffffffffffffffffffffffffffffff1681526020019081526020016000205460405161067d93929190610d64565b60405180910390a1600192505050919050565b6000600460008373ffffffffffffffffffffffffffffffffffffffff1673ffffffffffffffffffffffffffffffffffffffff168152602001908152602001600020549050919050565b60035481565b6000600354905090565b600281815481106106f957600080fd5b906000526020600020016000915054906101000a900473ffffffffffffffffffffffffffffffffffffffff1681565b60008060009054906101000a900473ffffffffffffffffffffffffffffffffffffffff16905060003090506000339050600160009054906101000a900473ffffffffffffffffffffffffffffffffffffffff1673ffffffffffffffffffffffffffffffffffffffff168173ffffffffffffffffffffffffffffffffffffffff16146107e8576040517f08c379a00000000000000000000000000000000000000000000000000000000081526004016107df90610df6565b60405180910390fd5b838373ffffffffffffffffffffffffffffffffffffffff166370a08231846040518263ffffffff1660e01b81526004016108229190610ce9565b60206040518083038186803b15801561083a57600080fd5b505afa15801561084e573d6000803e3d6000fd5b505050506040513d601f19601f820116820180604052508101906108729190610c07565b10156108b3576040517f08c379a00000000000000000000000000000000000000000000000000000000081526004016108aa90610e16565b60405180910390fd5b8273ffffffffffffffffffffffffffffffffffffffff1663a9059cbb82866040518363ffffffff1660e01b81526004016108ee929190610d3b565b602060405180830381600087803b15801561090857600080fd5b505af115801561091c573d6000803e3d6000fd5b505050506040513d601f19601f820116820180604052508101906109409190610bb5565b61097f576040517f08c379a000000000000000000000000000000000000000000000000000000000815260040161097690610db6565b60405180910390fd5b50505050565b600160009054906101000a900473ffffffffffffffffffffffffffffffffffffffff1673ffffffffffffffffffffffffffffffffffffffff163373ffffffffffffffffffffffffffffffffffffffff1614610a15576040517f08c379a0000000000000000000000000000000000000000000000000000000008152600401610a0c90610df6565b60405180910390fd5b806000806101000a81548173ffffffffffffffffffffffffffffffffffffffff021916908373ffffffffffffffffffffffffffffffffffffffff16021790555050565b6002819080600181540180825580915050600190039060005260206000200160009091909190916101000a81548173ffffffffffffffffffffffffffffffffffffffff021916908373ffffffffffffffffffffffffffffffffffffffff160217905550610ad16001600354610ada90919063ffffffff16565b60038190555050565b6000808284610ae99190610e62565b905083811015610b2e576040517f08c379a0000000000000000000000000000000000000000000000000000000008152600401610b2590610dd6565b60405180910390fd5b8091505092915050565b600081359050610b4781610fd3565b92915050565b600081519050610b5c81610fea565b92915050565b600081359050610b7181611001565b92915050565b600081519050610b8681611001565b92915050565b600060208284031215610b9e57600080fd5b6000610bac84828501610b38565b91505092915050565b600060208284031215610bc757600080fd5b6000610bd584828501610b4d565b91505092915050565b600060208284031215610bf057600080fd5b6000610bfe84828501610b62565b91505092915050565b600060208284031215610c1957600080fd5b6000610c2784828501610b77565b91505092915050565b610c3981610eb8565b82525050565b610c4881610eca565b82525050565b6000610c5b601183610e51565b9150610c6682610f2f565b602082019050919050565b6000610c7e601b83610e51565b9150610c8982610f58565b602082019050919050565b6000610ca1600c83610e51565b9150610cac82610f81565b602082019050919050565b6000610cc4601083610e51565b9150610ccf82610faa565b602082019050919050565b610ce381610ef6565b82525050565b6000602082019050610cfe6000830184610c30565b92915050565b6000606082019050610d196000830186610c30565b610d266020830185610c30565b610d336040830184610cda565b949350505050565b6000604082019050610d506000830185610c30565b610d5d6020830184610cda565b9392505050565b6000606082019050610d796000830186610c30565b610d866020830185610cda565b610d936040830184610cda565b949350505050565b6000602082019050610db06000830184610c3f565b92915050565b60006020820190508181036000830152610dcf81610c4e565b9050919050565b60006020820190508181036000830152610def81610c71565b9050919050565b60006020820190508181036000830152610e0f81610c94565b9050919050565b60006020820190508181036000830152610e2f81610cb7565b9050919050565b6000602082019050610e4b6000830184610cda565b92915050565b600082825260208201905092915050565b6000610e6d82610ef6565b9150610e7883610ef6565b9250827fffffffffffffffffffffffffffffffffffffffffffffffffffffffffffffffff03821115610ead57610eac610f00565b5b828201905092915050565b6000610ec382610ed6565b9050919050565b60008115159050919050565b600073ffffffffffffffffffffffffffffffffffffffff82169050919050565b6000819050919050565b7f4e487b7100000000000000000000000000000000000000000000000000000000600052601160045260246000fd5b7f6572726f72206f6e207472616e73666572000000000000000000000000000000600082015250565b7f536166654d6174683a206164646974696f6e206f766572666c6f770000000000600082015250565b7f756e617574686f72697a65640000000000000000000000000000000000000000600082015250565b7f6e6f7420656e6f7567682066756e647300000000000000000000000000000000600082015250565b610fdc81610eb8565b8114610fe757600080fd5b50565b610ff381610eca565b8114610ffe57600080fd5b50565b61100a81610ef6565b811461101557600080fd5b5056fea26469706673582212207feb27322164ebd8ab2256824779cf3cd51ad434cd5569f61c21f12a0f77a98264736f6c63430008040033",
  "linkReferences": {},
  "deployedLinkReferences": {}
}